:0400000095EF0AF07E
:100800000000A03B00000000803FF0FFBEE2A93ED8
:100810008376BEAE2B3E3CC3BDD2133D78D3BB0026
:10082000270E000100016D6F100E00016C6F270E86
:1008300000010001726F100E0001716F130E0001B4
:1008400000016E6F950E000100016F6F430E0001F5
:100850000001706F0F0E00010001746FE90E0001BE
:10086000736F4CC001F04DC002F03BEC0AF001C0C8
:1008700009F002C00AF053EC0AF009C02CF00AC0DB
:100880002DF00BC02EF0010EF66E080EF76E09006B
:10089000F5CF2FF00900F5CF30F00A00F5CF31F099
:1008A000B6EC07F02CC060F02DC061F02EC062F0F5
:1008B000000E146EA00E156E400E166E60C00EF087
:1008C00061C00FF062C010F069EC0AF00EC011F0C8
:1008D0000FC012F010C013F043EC06F011C020F06E
:1008E00012C021F013C022F0000E046E050E036E3C
:1008F00071C001F072C002F01EEC0AF001C009F0F4
:1009000002C00AF053EC0AF009C01DF00AC01EF044
:100910000BC01FF032EC08F01DC066F01EC067F07F
:100920001FC068F066C011F067C012F068C013F015
:1009300071C009F072C00AF053EC0AF009C00EF061
:100940000AC00FF00BC010F069EC0AF00EC014F0F2
:100950000FC015F010C016F043EC06F011C063F0A4
:1009600012C064F013C065F06CC009F06DC00AF0ED
:1009700053EC0AF009C020F00AC021F00BC022F0AD
:1009800063C01DF064C01EF065C01FF032EC08F0BB
:100990001DC047F01EC048F01FC049F01FEC07F013
:1009A00047C069F048C06AF049C06BF06EC02FF0D4
:1009B0006FC030F070C031F073C009F074C00AF03D
:1009C00053EC0AF009C02CF00AC02DF00BC02EF039
:1009D000B6EC07F02CC01DF02DC01EF02EC01FF08D
:1009E0006EC02FF06FC030F070C031F069C02CF0D5
:1009F0006AC02DF06BC02EF0B6EC07F02CC014F0DE
:100A00002DC015F02EC016F073C009F074C00AF0A6
:100A100053EC0AF009C011F00AC012F00BC013F039
:100A200043EC06F011C020F012C021F013C022F0F8
:100A300032EC08F01DC075F01EC076F01FC077F0D4
:100A400075C011F076C012F077C013F0930E146EDB
:100A5000880E156EC30E166E43EC06F011C075F0CD
:100A600012C076F013C077F075C04CF076C04DF030
:100A700077C04EF01200000E4F6E000E506E000E4A
:100A8000516E94947CEC0AF08CEC0AF0000E4D6EE2
:100A9000000E4C6E10EC04F04CC04FF04DC050F006
:100AA0004EC051F04FC001F050C002F051C003F0F1
:100AB000000E046EA00E056E410E066EACEC09F041
:100AC000D8A012D0000E016EB00E026E410E036E61
:100AD0004FC004F050C005F051C006F0ACEC09F076
:100AE000D8A002D0000ECDD04FC001F050C002F00F
:100AF00051C003F0000E046EB00E056E410E066E7E
:100B0000ACEC09F0D8A012D0000E016EC00E026E3F
:100B1000410E036E4FC004F050C005F051C006F006
:100B2000ACEC09F0D8A002D0190EABD04FC001F048
:100B300050C002F051C003F0000E046EC00E056EEE
:100B4000410E066EACEC09F0D8A012D0000E016E7A
:100B5000D00E026E410E036E4FC004F050C005F07F
:100B600051C006F0ACEC09F0D8A002D0320E89D00A
:100B70004FC001F050C002F051C003F0000E046EEF
:100B8000D00E056E410E066EACEC09F0D8A012D066
:100B9000000E016EE00E026E410E036E4FC004F0B7
:100BA00050C005F051C006F0ACEC09F0D8A002D05E
:100BB000640E67D04FC001F050C002F051C003F086
:100BC000000E046EE00E056E410E066EACEC09F0F0
:100BD000D8A012D0000E016EF00E026E410E036E10
:100BE0004FC004F050C005F051C006F0ACEC09F065
:100BF000D8A002D0960E45D04FC001F050C002F0F0
:100C000051C003F0000E046EF00E056E410E066E2C
:100C1000ACEC09F0D8A012D0000E016E000E026EEE
:100C2000420E036E4FC004F050C005F051C006F0F4
:100C3000ACEC09F0D8A002D0C80E23D04FC001F010
:100C400050C002F051C003F0000E046E000E056E9D
:100C5000420E066EACEC09F0D8A012D0000E016E68
:100C6000080E026E420E036E4FC004F050C005F035
:100C700051C006F0ACEC09F0D8A002D0E10E01D0D2
:100C8000F90EBE6E03D713C017F0186A196A123432
:100C9000173601E3188017501C6E16C017F0186A3B
:100CA000196A1534173601E3188017501B6E1C5053
:100CB000D8B40CD01B501C5CD8B00FD01C5000080E
:100CC0001B24176E190E175CD8A007D014C011F0A2
:100CD00015C012F016C013F012001B50D8B40CD07F
:100CE0001C501B5CD8B00FD01B5000081C24176E82
:100CF000190E175CD8A007D011C011F012C012F065
:100D000013C013F01200176E060E1A6E175013BEA2
:100D10001A8E16BE1A8C128EFF0E1116FF0E1216A8
:100D2000000E1316158EFF0E1416FF0E1516000E6C
:100D300016161B501C5CD8B01AD0D8901436153635
:100D400016361B061B501C18D8B40DD01A061AC034
:100D500017F0070E1716D8B406D0EFD7D890133275
:100D6000123211321C2A1B501C62F8D71DD01C50A5
:100D70001B5CD8B019D0D8901136123613361C0629
:100D80001B501C18D8B40DD01A061AC017F0070E45
:100D90001716D8B406D0EFD7D890163215321432C1
:100DA0001B2A1B501C62F8D71AAE0CD0FF0E111A6A
:100DB000FF0E121AFF0E131A010E1126000E122238
:100DC000000E13221AAC0CD0FF0E141AFF0E151AC7
:100DD000FF0E161A010E1426000E1522000E162202
:100DE000176E000E1A6E175011501426125015224D
:100DF0001350162216AE10D0FF0E141AFF0E151A3D
:100E0000FF0E161A010E1426000E1522000E1622D1
:100E1000176E010E1A6E175014C001F015C002F0C3
:100E200016C003F01CC004F01AC005F00EEC09F067
:100E300001C011F002C012F003C013F012004950BB
:100E4000800A800F05E1000E485C02E1000E475C5D
:100E5000D8B00BD0000E536E210E526E000E476EAE
:100E6000000E486E000E496E12007F0E49144810A5
:100E70004710D8A40BD0000E536E220E526E000EF7
:100E8000476E000E486E000E496E1200000E2F6E67
:100E9000000E306E400E316E000E056E4A0E046E6E
:100EA00047C001F048C002F049C003F062EC09F00D
:100EB00001C02CF002C02DF003C02EF0B6EC07F0FC
:100EC0002CC011F02DC012F02EC013F0000E146EC5
:100ED000800E156EBF0E166E43EC06F011C047F083
:100EE00012C048F013C049F04A06D8A04B0647C0CC
:100EF0003BF048C03CF049C03DF0080E3F6E040E88
:100F00003E6E000E416E080E406EA5EC08F03BC030
:100F100047F03CC048F03DC049F0720E2F6E310ED4
:100F2000306E3F0E316E4AC009F04BC00AF0F4EC4F
:100F300009F009C02CF00AC02DF00BC02EF0B6EC61
:100F400007F02CC011F02DC012F02EC013F047C0D6
:100F500014F048C015F049C016F043EC06F011C07B
:100F600047F012C048F013C049F012002EC032F012
:100F7000336A346A2D34323601E333803250356EB1
:100F8000356607D0000E2C6E000E2D6E000E2E6EF4
:100F9000120031C032F0336A346A3034323601E341
:100FA000338032503A6E3A6607D0000E2C6E000E37
:100FB0002D6E000E2E6E12003A507B0F35262EC07D
:100FC0003AF031503A1A800E3A162D8E308EFF0EBE
:100FD0002F16FF0E3016000E3116000E366E000E64
:100FE000376E000E386E326E070E396E32502CA0FE
:100FF00006D02F5036263050372231503822D89024
:101000002E322D322C32D8902F3630363136392EC2
:10101000EED7326E090E396E32502CA006D02F500A
:1010200036263050372231503822D8902E322D3289
:101030002C32D890383237323632392EEED736C08D
:1010400001F037C002F038C003F035C004F03AC0F8
:1010500005F00EEC09F001C02CF002C02DF003C029
:101060002EF012001FC023F0246A256A1E34233696
:1010700001E3248023502A6E2A6607D0000E1D6EDD
:10108000000E1E6E000E1F6E120022C023F0246A96
:10109000256A2134233601E3248023502B6E2B66EE
:1010A00007D0000E1D6E000E1E6E000E1F6E120089
:1010B000000E276E000E286E000E296E2B50890F31
:1010C0002A5E1FC02BF022502B1A800E2B161E8E6C
:1010D000FF0E1D16FF0E1E16000E1F16218EFF0E90
:1010E0002016FF0E2116000E2216236E180E266EF5
:1010F0002350D89027362836293620501D5C2150A1
:101100001E5822501F58D8A007D020501D5E2150D5
:101110001E5A22501F5A2780D8901D361E361F3661
:10112000262EE7D727C001F028C002F029C003F01F
:101130002AC004F02BC005F00EEC09F001C01DF030
:1011400002C01EF003C01FF0120040C001F041C0F9
:1011500002F0000E046E030E036E1EEC0AF03EC099
:1011600042F03FC043F0015042260250432242C0A9
:10117000F6FF43C0F7FF0900F5CF44F00900F5CFB3
:1011800045F00A00F5CF46F03ED044C02FF045C0F0
:1011900030F046C031F03BC02CF03CC02DF03DC0DB
:1011A0002EF0B6EC07F02CC011F02DC012F02EC0BE
:1011B00013F0000E046E030E036E4006D8A0410625
:1011C00040C001F041C002F01EEC0AF03EC042F007
:1011D0003FC043F0015042260250432242C0F6FF76
:1011E00043C0F7FF0900F5CF14F00900F5CF15F063
:1011F0000A00F5CF16F043EC06F011C044F012C01F
:1012000045F013C046F041504010D8A4BED744C0AA
:101210003BF045C03CF046C03DF012000450D8B44D
:1012200005D0015002100310D8A40CD0000E016E9E
:10123000000E026E000E036E1200042AD8900332D4
:1012400002320132000E0114066E000E0214076E07
:10125000FE0E0314086E065007100810D8B40CD008
:10126000ECD7042A010E0126000E0222000E0322F2
:10127000D890033202320132000E0114066E000EC5
:101280000214076EFF0E0314086E065007100810B4
:10129000D8B406D0E6D70406D89001360236033615
:1012A00002AEF9D704A0029ED89004320450031273
:1012B0000550D8A4038E01C001F002C002F003C0A3
:1012C00003F012007F0E031402100110D8A40FD0F7
:1012D00004C0D9FF05C0DAFF000EDE6E000EDD6E21
:1012E000000E016E000E026E000E036E120003501F
:1012F0007F0B066ED8900634076E086A083604C065
:10130000D9FF05C0DAFF07C0DEFF08C0DDFF02AE6F
:1013100003D0066A062A01D0066A065004C0D9FF27
:1013200005C0DAFFDE12000EDD1204C0D9FF05C0D1
:10133000DAFF820EDE26FF0EDD22038003820384A5
:1013400003860388038A039C029E01C001F002C049
:1013500002F003C003F0120003AE16D001C007F084
:1013600002C008F003C009F0071E081E091E072A64
:10137000000E08220922000E0724016E000E08202C
:10138000026E800E0920036E06AE16D004C007F070
:1013900005C008F006C009F0071E081E091E072A2E
:1013A000000E08220922000E0724046E000E0820F9
:1013B000056E800E0920066E000E011A000E021A3C
:1013C000800E031A000E041A000E051A800E061A6B
:1013D0000450015C0550025806500358D8B002D0A2
:1013E000D8901200D88012000C6E000E0D6E0C50BA
:1013F0000A50800AF36E800EF35C000ED8B4095CCC
:10140000D8B008D0096C0A1ED8B00A2A0C6E010E9A
:101410000D6E0C5009C001F00AC002F0036A0C6E98
:101420008E0E046E0C500DC005F00EEC09F001C0DC
:1014300009F002C00AF003C00BF0120001500302D1
:10144000F3CF05F0F4CF06F001500402F3CFF4FF20
:10145000F36AF3500526F450062202500302F3CF3C
:10146000F4FFF36AF3500526F450062205C001F09C
:1014700006C002F0120001C003F003460346C2504A
:101480000318830B0318C26EC282C2B2FED7C350C8
:10149000C4CF03F0046A03C004F0036A0310016EB2
:1014A0000450026E120009C001F00AC002F0036A83
:1014B0000C6E8E0E046E0C500D6E000E056E0D50EF
:1014C0000EEC09F001C009F002C00AF003C00BF0F5
:1014D00012007F0E10140F100E10D8B406D0000E9C
:1014E0000E1A000E0F1A800E101A0EC00EF00FC04A
:1014F0000FF010C010F0120092800F010F015B81FD
:10150000C08EC086C088C08AC050F80B0509C06E66
:10151000C194C192C28012000C0EBD6E070EBA6E4D
:10152000F90EBB6E190EBE6E1200536A526A000E9F
:08153000F86E00013BEF05F02D
:020000040020DA
:08000000FFFFFFFFFFFFFFFF00
:020000040030CA
:0E00000000285F3CFFD185FF0FC00FE00F40CE
:00000001FF
