:0400000027EF17F0DF
:1008000000010000000A00000064000000E803008E
:100810000010270000A086010040420F008096983B
:100820000000E1F50500CA9A3B00803FCDCC3DD7E2
:10083000233C12833AB7D138C62737388635C0D61D
:1008400033CC2B32708930E7DB2EE53C1E42A20D03
:1008500000803F00204100C842007A44401C4650BE
:10086000C34724744997184BBCBE4C6B6E4E03159E
:100870005079AD60F3497100A03B00204200A041D7
:10088000FF00640000000000803FF0FFBEE2A93ED0
:100890008376BEAE2B3E3CC3BDD2133D78D3BB2581
:1008A0002E31660000000001000E00010001756F8E
:1008B0000001640E00010001746FB9EF08F000013F
:1008C00000018F51250AD8B409D060C0D9FF61C09A
:1008D000DAFF00018FC0DFFFB5EF08F0000E000166
:1008E00000017F6F000E00017E6F000162C0F6FF05
:1008F000000163C0F7FF0800F5502E0AD8A43ED0CF
:10090000000100017F8D00010001624B632B000E8E
:10091000000100018B6F000E00018A6F22D08AC097
:1009200011F08BC012F0000E146E0A0E136E2EEC36
:1009300016F0000162C0F6FF000163C0F7FF080077
:10094000F5501126000E1222D00E112400010001D4
:100950008A6FFF0E122000018B6F00010001624BB5
:10096000632B000162C0F6FF000163C0F7FF0800BF
:10097000F550AFEC16F0D8A010D0D1D7000E000182
:1009800000018B6F000E00018A6F000100017F895A
:1009900004D0000100017F8517D0000162C0F6FF7E
:1009A000000163C0F7FF00010001624B632B0800E8
:1009B0000001F5CF8FF000018F51000AD8B4EBD3BE
:1009C000660AD8B4E6D7D5D3070E000100017F151B
:1009D000D8B46BD3000100017FA907D0000E00013D
:1009E00000018B6F060E00018A6F74C0D9FF75C0BD
:1009F000DAFF0001DECF8CF00001DECF8DF00001C8
:100A0000DDCF8EF0030E000100017427000E0001FF
:100A10007523000100018E51800A800F07E1000E4E
:100A200000018D5D03E1000E00018C5DD8B012D095
:100A30008CC01CF08DC01DF08EC01EF0C4EC16F0F2
:100A40001CC08CF01DC08DF01EC08EF0030E000186
:100A500000017E13000E00010001896F000E0001ED
:100A6000886F7F0E000100018E1500018D110001BD
:100A70008C11D8B49DD0820E0001676FFF0E686F95
:100A800000018CC069F000018DC06AF000018EC0C9
:100A90006BF000018FC06CF0100E06D00001D890F2
:100AA0006C336B336A336933E82EF8D70001695130
:100AB0000001672500010001886F00010001000EA0
:100AC0006821896F000100018807D8A0890788C0C4
:100AD00011F089C012F0000E146E030E136E2EEC8E
:100AE00016F011C088F012C089F088C008F089C0E3
:100AF00009F0000E0B6E0A0E0A6EF7EC12F008C039
:100B000088F009C089F0000100018951800AF36E64
:100B1000800EF35C000ED8B4885DD8B005D000011B
:100B200000018807D8A0890700010001885100084A
:100B3000D2EC08F049C085F04AC086F04BC087F07F
:100B40000001000E4A6E0001850E496E8CC04BF00C
:100B50008DC04CF08EC04DF0F2EC15F085C001F068
:100B600086C002F087C003F0000E046E800E056E92
:100B70003F0E066E91EC14F0D8B006D000010001D3
:100B80008807D8A0890714D085C001F086C002F07C
:100B900087C003F0000E046E200E056E410E066E37
:100BA00091EC14F0D8A004D000010001884B892BEF
:100BB000000100018B51800AF36E800EF35C0D0E74
:100BC000D8B48A5DD8B013D00001000E546E000175
:100BD0008C0E536E000100018A5102EC0CF049C0EA
:100BE00055F04AC056F04BC057F010EC16F000011B
:100BF00000018951800AF36E800EF35C0A0ED8B4AE
:100C0000885DD8B02BD07F0E000100018E15000149
:100C10008D1100018C11D8B471D08CC050F08DC0F2
:100C200051F08EC052F0A0EC11F050C067F051C0EE
:100C300068F052C069F053C06AF000016A51671150
:100C400068116911D8A45AD0000100018951800AA5
:100C5000800F020ED8B4885DD8A050D085C001F0B6
:100C600086C002F087C003F0700E046E890E056E18
:100C7000400E066E91EC14F0D8B003D00001F70ED0
:100C800002D00001F80E00018827FF0E0001892321
:100C9000000100018851D2EC08F049C085F04AC03B
:100CA00086F04BC087F08CC001F08DC002F08EC082
:100CB00003F085C004F086C005F087C006F006EC9E
:100CC00010F001C070F002C071F003C072F004C0F7
:100CD00073F070C080F071C081F072C082F073C098
:100CE00083F0000E000100018C6F000E0001000176
:100CF0008D6F000E000100018E6F2FD08CC050F060
:100D00008DC051F08EC052F0A0EC11F050C080F0B8
:100D100051C081F052C082F053C083F00001000E38
:100D2000326E00018C0E316E80C009F081C00AF075
:100D300082C00BF083C00CF051EC15F009C033F009
:100D40000AC034F00BC035F0D4EC15F0000E0001F1
:100D50000001896F000E0001886F0001676F010EAE
:100D6000000100018F6F00016751000100018F51E8
:100D70000A0AD8B421D0000100018F51040D010EE0
:100D8000F324F66E080EF420F76E0900F55000010A
:100D90000001805D0900F550000181590900F550FE
:100DA000000182590900F55000018359D8A004D0F0
:100DB000000100018F2BD9D7030E000100017E1521
:100DC0000001676F000E000100017F150001686FD0
:100DD000000168516711D8B455D060C0D9FF61C017
:100DE000DAFF2D0E4AD080C001F081C002F082C02F
:100DF00003F083C004F0000100018F51040D010EC7
:100E0000F324F66E080EF420F76E0900F5CF05F016
:100E10000900F5CF06F00900F5CF07F00A00F5CF7D
:100E200008F0D9EC14F001C076F002C077F003C0EE
:100E300078F004C079F076C001F077C002F078C095
:100E400003F079C004F00A0E056E000E066E000E67
:100E5000076E000E086E1CEC15F001C076F002C0A3
:100E600077F003C078F004C079F0000100017651FA
:100E7000300F60C0D9FF61C0DAFFDF6E00010001F2
:100E8000604B612B000100018F0700018F29D8B44E
:100E900010D0A9D760C0D9FF61C0DAFF300EDF6E75
:100EA00000010001604B612B000100018807D8A000
:100EB0008907000100018951800AF36E800EF35CFE
:100EC000010ED8B4885DD8B0E5D7000100018B5180
:100ED000800A800F090ED8B48A5DD8A009D000011D
:100EE000676F080E000100018F6F0001675102D08B
:100EF0008AC08FF0000100018F51000100018A5F5C
:100F0000000E00018FBFFF0E000100018B5B00018E
:100F100000018F51D8B40AD060C0D9FF61C0DAFF98
:100F20002E0EDF6E00010001604B612B00010001FD
:100F30008F51D2EC08F049C06DF04AC06EF04BC042
:100F40006FF08CC03DF08DC03EF08EC03FF06DC0A4
:100F50003AF06EC03BF06FC03CF024EC11F03AC0A8
:100F600050F03BC051F03CC052F0A0EC11F050C02A
:100F700080F051C081F052C082F053C083F077D02E
:100F800080C001F081C002F082C003F083C004F091
:100F9000000100018F51040D010EF324F66E080EBE
:100FA000F420F76E0900F5CF05F00900F5CF06F043
:100FB0000900F5CF07F00A00F5CF08F0D9EC14F0DE
:100FC00001C07AF002C07BF003C07CF004C07DF069
:100FD0007AC001F07BC002F07CC003F07DC004F059
:100FE0000A0E056E000E066E000E076E000E086EED
:100FF0001CEC15F001C07AF002C07BF003C07CF05D
:1010000004C07DF0000100017A51300F60C0D9FFAB
:1010100061C0DAFFDF6E00010001604B612B80C010
:1010200001F081C002F082C003F083C004F000012F
:1010300000018F51040D010EF324F66E080EF4200A
:10104000F76E0900F5CF05F00900F5CF06F00900AD
:10105000F5CF07F00A00F5CF08F01CEC15F001C041
:1010600080F002C081F003C082F004C083F0000170
:1010700000018F0700018F29D8B410D081D760C03C
:10108000D9FF61C0DAFF300EDF6E00010001604B56
:10109000612B000100018A07D8A08B070001000125
:1010A0008B518A11D8B465D0EAD7000100018B5169
:1010B0008A11D8A40CD00001000183518011811144
:1010C0008211D8A404D0000100018A4B8B2B800E22
:1010D000000100018FBF7F0E676F000100018A5180
:1010E000000100018F5D000100018B51800A0001A9
:1010F0006759D8B003D08AC08FF020D0000100011A
:101100008B51800A0001676F000100018F510001BF
:1011100000018A5D800E000100018FBF7F0E00017B
:101120006759D8B00BD0000100018F5100010001B8
:101130008A6F00018B6B00018ABF8B07030E0001D1
:1011400000017E150001676F000E000100017F1590
:101150000001686F000168516711D8B40AD060C0FF
:10116000D9FF61C0DAFF2D0EDF6E00010001604B78
:10117000612B000162C0F6FF000163C0F7FF0001B0
:101180000001624B632B08000001F5CF8FF00001D6
:101190008F675FEF04F060C0D9FF61C0DAFF000E17
:1011A000DF6E1200E8CF4FF04FAE01D14F6C4F50C1
:1011B000800A120FD8A091D0000E146E030E136E89
:1011C000000E0B6E0A0E0A6E000E046E640E036EA5
:1011D0004F50016E026A01BE0206F9EC13F001C025
:1011E00008F002C009F0F7EC12F0090E0824116EA5
:1011F000000E0920126E2EEC16F0290E1124F66E48
:10120000080E1220F76E0900F5CF3DF00900F5CF6A
:101210003EF00A00F5CF3FF0000E146E030E136E81
:10122000000E0B6E640E0A6E4F50086E096A08BEFF
:101230000906F7EC12F0120E0824116E000E0920B8
:10124000126E2EEC16F0290E1124F66E080E1220E6
:10125000F76E0900F5CF3AF00900F5CF3BF00A0030
:10126000F5CF3CF024EC11F03AC04CF03BC04DF00F
:101270003CC04EF04CC03AF04DC03BF04EC03CF08C
:10128000000E146E030E136E000E046E0A0E036E33
:101290004F50016E026A01BE0206F9EC13F001C064
:1012A00011F002C012F02EEC16F0290E1124F66E89
:1012B000080E1220F76E0900F5CF3DF00900F5CFBA
:1012C0003EF00A00F5CF3FF024EC11F03AC049F0AF
:1012D0003BC04AF03CC04BF012004F50800A750FE3
:1012E000D8A053D0000E146E030E136E000E0B6EBA
:1012F0000A0E0A6E4F50086E096A08BE0906F7EC1E
:1013000012F0090E0824116E000E0920126E2EEC48
:1013100016F0290E1124F66E080E1220F76E090041
:10132000F5CF3AF00900F5CF3BF00A00F5CF3CF0DD
:10133000000E146E030E136E000E046E0A0E036E82
:101340004F50016E026A01BE0206F9EC13F001C0B3
:1013500011F002C012F02EEC16F0290E1124F66ED8
:10136000080E1220F76E0900F5CF3DF00900F5CF09
:101370003EF00A00F5CF3FF024EC11F03AC049F0FE
:101380003BC04AF03CC04BF012004F50030D290EF9
:10139000F324F66E080EF420F76E0900F5CF49F03D
:1013A0000900F5CF4AF00A00F5CF4BF012004F507C
:1013B000800A120FD8A091D0000E146E030E136E87
:1013C000000E0B6E0A0E0A6E000E046E640E036EA3
:1013D0004F50016E026A01BE0206F9EC13F001C023
:1013E00008F002C009F0F7EC12F0090E0824116EA3
:1013F000000E0920126E2EEC16F0500E1124F66E1F
:10140000080E1220F76E0900F5CF3DF00900F5CF68
:101410003EF00A00F5CF3FF0000E146E030E136E7F
:10142000000E0B6E640E0A6E4F50086E096A08BEFD
:101430000906F7EC12F0120E0824116E000E0920B6
:10144000126E2EEC16F0500E1124F66E080E1220BD
:10145000F76E0900F5CF3AF00900F5CF3BF00A002E
:10146000F5CF3CF024EC11F03AC04CF03BC04DF00D
:101470003CC04EF04CC03AF04DC03BF04EC03CF08A
:10148000000E146E030E136E000E046E0A0E036E31
:101490004F50016E026A01BE0206F9EC13F001C062
:1014A00011F002C012F02EEC16F0500E1124F66E60
:1014B000080E1220F76E0900F5CF3DF00900F5CFB8
:1014C0003EF00A00F5CF3FF024EC11F03AC049F0AD
:1014D0003BC04AF03CC04BF012004F50800A750FE1
:1014E000D8A053D0000E146E030E136E000E0B6EB8
:1014F0000A0E0A6E4F50086E096A08BE0906F7EC1C
:1015000012F0090E0824116E000E0920126E2EEC46
:1015100016F0500E1124F66E080E1220F76E090018
:10152000F5CF3AF00900F5CF3BF00A00F5CF3CF0DB
:10153000000E146E030E136E000E046E0A0E036E80
:101540004F50016E026A01BE0206F9EC13F001C0B1
:1015500011F002C012F02EEC16F0500E1124F66EAF
:10156000080E1220F76E0900F5CF3DF00900F5CF07
:101570003EF00A00F5CF3FF024EC11F03AC049F0FC
:101580003BC04AF03CC04BF012004F50030D500ED0
:10159000F324F66E080EF420F76E0900F5CF49F03B
:1015A0000900F5CF4AF00A00F5CF4BF01200270EE4
:1015B000000100016D6F100E00016C6F270E00011D
:1015C0000001726F100E0001716F130E0001000117
:1015D0006E6F950E000100016F6F430E0001000158
:1015E000706F0F0E00010001746FE90E0001736F40
:1015F0005AC001F05BC002F081EC16F001C017F098
:1016000002C018F099EC16F017C03AF018C03BF081
:1016100019C03CF0770EF66E080EF76E0900F5CF94
:101620003DF00900F5CF3EF00A00F5CF3FF024EC85
:1016300011F03AC060F03BC061F03CC062F0000EB7
:10164000226EA00E236E400E246E60C01CF061C09E
:101650001DF062C01EF0C4EC16F01CC01FF01DC0CF
:1016600020F01EC021F02CEC0DF01FC02EF020C089
:101670002FF021C030F0000E146E050E136E71C0F5
:1016800011F072C012F02EEC16F011C017F012C05B
:1016900018F099EC16F017C02BF018C02CF019C0F8
:1016A0002DF01BEC12F02BC066F02CC067F02DC0A3
:1016B00068F066C01FF067C020F068C021F071C0FC
:1016C00017F072C018F099EC16F017C01CF018C093
:1016D0001DF019C01EF0C4EC16F01CC022F01DC095
:1016E00023F01EC024F02CEC0DF01FC063F020C0CE
:1016F00064F021C065F06CC017F06DC018F099EC73
:1017000016F017C02EF018C02FF019C030F063C0CB
:101710002BF064C02CF065C02DF01BEC12F02BC038
:1017200055F02CC056F02DC057F069EC0FF055C0A5
:1017300069F056C06AF057C06BF06EC03DF06FC0E4
:101740003EF070C03FF073C017F074C018F099EC11
:1017500016F017C03AF018C03BF019C03CF024EC6A
:1017600011F03AC02BF03BC02CF03CC02DF06EC005
:101770003DF06FC03EF070C03FF069C03AF06AC003
:101780003BF06BC03CF024EC11F03AC022F03BC0BF
:1017900023F03CC024F073C017F074C018F099EC2B
:1017A00016F017C01FF018C020F019C021F02CEC63
:1017B0000DF01FC02EF020C02FF021C030F01BEC28
:1017C00012F02BC075F02CC076F02DC077F075C0EC
:1017D0001FF076C020F077C021F0930E226E880EA5
:1017E000236EC30E246E2CEC0DF01FC075F020C0CC
:1017F00076F021C077F075C05AF076C05BF077C004
:101800005CF01200E8CF52F06D0E52649FD0000ED3
:10181000146E030E136E000E0B6E0A0E0A6E000E8F
:10182000046E640E036E52C001F0026AF9EC13F00C
:1018300001C008F002C009F0F7EC12F0090E08240C
:10184000116E000E0920126E2EEC16F0290E1124D6
:10185000F66E080E1220F76E0900F5CF3DF0090074
:10186000F5CF3EF00A00F5CF3FF0000E146E030EE8
:10187000136E000E0B6E640E0A6E52C008F0096AF9
:10188000F7EC12F0120E0824116E000E0920126EF1
:101890002EEC16F0290E1124F66E080E1220F76EAB
:1018A0000900F5CF3AF00900F5CF3BF00A00F5CF7B
:1018B0003CF024EC11F03AC04FF03BC050F03CC07B
:1018C00051F0000E146E030E136E000E046E0A0E1D
:1018D000036E52C001F0026AF9EC13F001C011F07E
:1018E00002C012F02EEC16F0290E1124F66E080E2E
:1018F0001220F76E0900F5CF3DF00900F5CF3EF05C
:101900000A00F5CF3FF04FC03AF050C03BF051C055
:101910003CF024EC11F03AC04CF03BC04DF03CC020
:101920004EF04CC03AF04DC03BF04EC03CF0000EC3
:101930003D6E000E3E6E3F0E3F6E24EC11F03AC03D
:1019400049F03BC04AF03CC04BF012000A0E526412
:1019500063D0000E146E030E136E000E046E0A0E9A
:10196000036E52C001F0026AF9EC13F001C011F0ED
:1019700002C012F02EEC16F0290E1124F66E080E9D
:101980001220F76E0900F5CF3DF00900F5CF3EF0CB
:101990000A00F5CF3FF0000E146E030E136E000E1A
:1019A0000B6E0A0E0A6E52C008F0096AF7EC12F0CC
:1019B000090E0824116E000E0920126E2EEC16F08E
:1019C000290E1124F66E080E1220F76E0900F5CFCD
:1019D0003AF00900F5CF3BF00A00F5CF3CF024ECDB
:1019E00011F03AC04FF03BC050F03CC051F04FC036
:1019F0003AF050C03BF051C03CF0000E3D6E000E7E
:101A00003E6E3F0E3F6E24EC11F03AC049F03BC0F1
:101A10004AF03CC04BF012005250030D290EF32443
:101A2000F66E080EF420F76E0900F5CF3AF00900C3
:101A3000F5CF3BF00A00F5CF3CF0000E3D6E000EF6
:101A40003E6E3F0E3F6E24EC11F03AC049F03BC0B1
:101A50004AF03CC04BF0120021C025F0266A276AEC
:101A60002034253601E3268025502A6E24C025F037
:101A7000266A276A2334253601E326802550296EFD
:101A80002A50D8B40CD029502A5CD8B00FD02A5094
:101A900000082924256E190E255CD8A007D022C085
:101AA0001FF023C020F024C021F012002950D8B428
:101AB0000CD02A50295CD8B00FD0295000082A2415
:101AC000256E190E255CD8A007D01FC01FF020C0BE
:101AD00020F021C021F01200256E060E286E255040
:101AE00021BE288E24BE288C208EFF0E1F16FF0ECE
:101AF0002016000E2116238EFF0E2216FF0E23162F
:101B0000000E241629502A5CD8B01AD0D89022365C
:101B100023362436290629502A18D8B40DD0280691
:101B200028C025F0070E2516D8B406D0EFD7D890D8
:101B3000213220321F322A2A29502A62F8D71DD09A
:101B40002A50295CD8B019D0D8901F3620362136BB
:101B50002A0629502A18D8B40DD0280628C025F006
:101B6000070E2516D8B406D0EFD7D89024322332EA
:101B70002232292A29502A62F8D728AE0CD0FF0E2B
:101B80001F1AFF0E201AFF0E211A010E1F26000E2B
:101B90002022000E212228AC0CD0FF0E221AFF0EAC
:101BA000231AFF0E241A010E2226000E2322000EF5
:101BB0002422256E000E286E25501F50222620500C
:101BC00023222150242224AE10D0FF0E221AFF0E11
:101BD000231AFF0E241A010E2226000E2322000EC5
:101BE0002422256E010E286E255022C001F023C04C
:101BF00002F024C003F02AC004F028C005F0A5ECD0
:101C000013F001C01FF002C020F003C021F0120049
:101C100001C007F002C008F003C009F004C00AF0D8
:101C2000180E05D0D8900A32093208320732E82E51
:101C3000F9D70750106E106609D0000E016E000E25
:101C4000026E000E036E000E046E120004C007F058
:101C500005C008F006C009F007C00AF0180E05D04C
:101C6000D8900A32093208320732E82EF9D70750E5
:101C70000F6E0F6609D0000E016E000E026E000E90
:101C8000036E000E046E1200038EFF0E0116FF0E8F
:101C90000216FF0E0316000E0416068EFF0E041623
:101CA000FF0E0516FF0E0616000E0716000E0B6E31
:101CB000000E0C6E000E0D6E000E0E6E7F0E105E8E
:101CC0000F50A00F105E076E200E0F6E0750D890B9
:101CD0000B360C360D360E360450015C055002589A
:101CE0000650035807500458D8A009D00450015E8C
:101CF0000550025A0650035A0750045A0B80D890D8
:101D000001360236033604360F2EE1D710AE19D055
:101D10001050800A076EE10E800A075CD8B009D027
:101D2000000E016E000E026E000E036E000E046EB9
:101D30001200D8900E320D320C320B32103EF9D711
:101D400014D01F0E10640FD0000E016E000E026E34
:101D5000000E036E000E046E1200D8900B360C3687
:101D60000D360E3610061066F8D70BC001F00CC009
:101D700002F00DC003F00EC004F01200CD0E016E93
:101D8000C70E026E420E036E90C004F091C005F0C3
:101D900092C006F091EC14F0D8A0120000010001EE
:101DA0009251800A800F07E1000E0001915D03E16E
:101DB000000E0001905DD8A012000001000E00018D
:101DC0000001616F00019B0E00010001606F080EB1
:101DD00000010001636F9F0E00010001626F90C05F
:101DE00064F091C065F092C066F053EC04F000011D
:101DF00000019C512E0AD8A428D0D00E0001936F68
:101E0000FF0E946F000100019B510001956F966BCE
:101E10000001935100019527000194510001962380
:101E2000800E0001951100010001976F000196518D
:101E30000001986F000E036E010E026E97C004F051
:101E400098C005F015EC17F00AD0000E036E010ED5
:101E5000026E00019BC004F0056A15EC17F000014A
:101E6000936F2E0E000100019D6F00019351D00E63
:101E70000001936FFF0E946F000100019C5100015F
:101E8000956F966B000193510001952700019451C5
:101E900000019623800E0001951100010001996F49
:101EA0000001965100019A6F000E036E020E026E41
:101EB00099C004F09AC005F015EC17F0000E036EFF
:101EC000030E026E00019EC004F0056A15EC17F0C7
:101ED00012005750800A800F05E1000E565C02E1A7
:101EE000000E555CD8B00ED0000E00010001A56FA9
:101EF000210E0001A46F000E556E000E566E000EEE
:101F0000576E12007F0E571456105510D8A40ED0DD
:101F1000000E00010001A56F220E0001A46F000E4B
:101F2000556E000E566E000E576E1200000E3D6E7E
:101F3000000E3E6E400E3F6E000E056E580E046E93
:101F400055C001F056C002F057C003F047EC14F042
:101F500001C03AF002C03BF003C03CF024EC11F0A9
:101F60003AC01FF03BC020F03CC021F0000E226EB2
:101F7000800E236EBF0E246E2CEC0DF01FC055F0AA
:101F800020C056F021C057F05806D8A0590655C0B9
:101F900049F056C04AF057C04BF0080E4D6E840E03
:101FA0004C6E000E4F6E080E4E6E8EEC12F049C055
:101FB00055F04AC056F04BC057F0720E3D6E310ED0
:101FC0003E6E3F0E3F6E58C009F059C00AF083ECD8
:101FD00015F009C03AF00AC03BF00BC03CF024EC0D
:101FE00011F03AC01FF03BC020F03CC021F055C0BA
:101FF00022F056C023F057C024F02CEC0DF01FC087
:1020000055F020C056F021C057F0120003C007F071
:10201000086A096A0234073601E3088007500F6E28
:102020000F6609D0000E016E000E026E000E036EE8
:10203000000E046E120006C007F0086A096A053433
:10204000073601E3088007500E6E0E6609D0000EB9
:10205000016E000E026E000E036E000E046E120082
:10206000028EFF0E0116FF0E0216000E0316058EDD
:10207000FF0E0416FF0E0516000E0616000E0A6E61
:10208000000E0B6E000E0C6E000E0D6E7F0E0F5EBE
:102090000E50980F0F5E076E180E0E6E0750D890F8
:1020A0000A360B360C360D360450015C05500258CA
:1020B00006500358D8A007D00450015E0550025ABC
:1020C0000650035A0A80D8900136023603360E2E87
:1020D000E6D70FAE19D00F50800A076EE90E800ABE
:1020E000075CD8B009D0000E016E000E026E000E23
:1020F000036E000E046E1200D8900D320C320B32BB
:102100000A320F3EF9D714D0170E0F640FD0000E0D
:10211000016E000E026E000E036E000E046E1200C1
:10212000D8900A360B360C360D360F060F66F8D7E8
:102130000AC001F00BC002F00CC003F00DC004F0A7
:10214000120060C001F061C002F062C003F07D0EB9
:10215000F66E080EF76E0900F5CF04F00900F5CF12
:1021600005F00A00F5CF06F091EC14F0D8B008D0D5
:10217000820EF66E080EF76E0800F5CFBEFF120055
:1021800060C02BF061C02CF062C02DF07A0EF66EAC
:10219000080EF76E0900F5CF2EF00900F5CF2FF0ED
:1021A0000A00F5CF30F01BEC12F02BC069F02CC008
:1021B0006AF02DC06BF069C001F06AC002F06BC01C
:1021C00003F0000E046E800E056E3F0E066E91EC5D
:1021D00014F0D8A008D0800EF66E080EF76E080036
:1021E000F5CFBEFF120069C03DF06AC03EF06BC083
:1021F0003FF0800EF66E080EF76E0900F5CF09F07D
:102200000A00F5CF0AF083EC15F009C03AF00AC0D5
:102210003BF00BC03CF024EC11F03AC050F03BC056
:1022200051F03CC052F0A0EC11F050C063F051C02E
:1022300064F052C065F053C066F063C067F064C0DC
:1022400068F067C0BEFF12003CC040F0416A426ABD
:102250003B34403601E341804050436E436607D033
:10226000000E3A6E000E3B6E000E3C6E12003FC038
:1022700040F0416A426A3E34403601E341804050BA
:10228000486E486607D0000E3A6E000E3B6E000E98
:102290003C6E120048507B0F43263CC048F03F5034
:1022A000481A800E48163B8E3E8EFF0E3D16FF0EDE
:1022B0003E16000E3F16000E446E000E456E000ED8
:1022C000466E406E070E476E40503AA006D03D5015
:1022D00044263E5045223F504622D8903C323B3265
:1022E0003A32D8903D363E363F36472EEED7406ED6
:1022F000090E476E40503AA006D03D5044263E504D
:1023000045223F504622D8903C323B323A32D89058
:10231000463245324432472EEED744C001F045C024
:1023200002F046C003F043C004F048C005F0A5EC3D
:1023300013F001C03AF002C03BF003C03CF01200C1
:1023400052C054F0556A566A5134543601E35580F0
:1023500054505E6E5E6609D0000E506E000E516ED7
:10236000000E526E000E536E1200170E546E50C0C7
:1023700055F051C056F052C057F05428586E04D052
:10238000D890573256325532582EFAD75550596E8A
:10239000518EFF0E5016FF0E5116000E5216505061
:1023A0005A6E51505B6E52505C6E5D6A8E0E5E5E70
:1023B0005EAE19D05E50800A546EF10E800A545CF5
:1023C000D8B009D0000E506E000E516E000E526E45
:1023D000000E536E1200D8905D325C325B325A327E
:1023E0005E3EF9D714D0170E5E640FD0000E506E0B
:1023F000000E516E000E526E000E536E1200D890F9
:102400005A365B365C365D365E065E66F8D75950E6
:10241000D8B408D05D1E5C1E5B1E5A6C000E5B2299
:102420005C225D225AC050F05BC051F05CC052F09B
:102430005DC053F012002DC031F0326A336A2C3483
:10244000313601E332803150386E386607D0000EE5
:102450002B6E000E2C6E000E2D6E120030C031F06F
:10246000326A336A2F34313601E332803150396EAB
:10247000396607D0000E2B6E000E2C6E000E2D6EEE
:102480001200000E356E000E366E000E376E39509B
:10249000890F385E2DC039F03050391A800E391648
:1024A0002C8EFF0E2B16FF0E2C16000E2D162F8EC7
:1024B000FF0E2E16FF0E2F16000E3016316E180E60
:1024C000346E3150D8903536363637362E502B5C38
:1024D0002F502C5830502D58D8A007D02E502B5E9E
:1024E0002F502C5A30502D5A3580D8902B362C3600
:1024F0002D36342EE7D735C001F036C002F037C094
:1025000003F038C004F039C005F0A5EC13F001C0A9
:102510002BF002C02CF003C02DF012004EC011F0C1
:102520004FC012F0000E146E030E136E2EEC16F058
:102530004CC050F04DC051F0115050261250512255
:1025400050C0F6FF51C0F7FF0900F5CF52F0090067
:10255000F5CF53F00A00F5CF54F03ED052C03DF015
:1025600053C03EF054C03FF049C03AF04AC03BF07F
:102570004BC03CF024EC11F03AC01FF03BC020F0FF
:102580003CC021F0000E146E030E136E4E06D8A050
:102590004F064EC011F04FC012F02EEC16F04CC09A
:1025A00050F04DC051F0115050261250512250C0E1
:1025B000F6FF51C0F7FF0900F5CF22F00900F5CF73
:1025C00023F00A00F5CF24F02CEC0DF01FC052F0E0
:1025D00020C053F021C054F04F504E10D8A4BED7A5
:1025E00052C049F053C04AF054C04BF012000C6E78
:1025F000000E0E6E0C500B50800AF36E800EF35CD2
:10260000000ED8B40A5CD8B008D00A6C0B1ED8B043
:102610000B2A0C6E010E0E6E0C500950800AF36EE0
:10262000800EF35C000ED8B4085CD8B006D0086CFD
:10263000091ED8B0092A010E0E1A000E106E000EE7
:102640000F6E0B500A10D8B41ED00C6E010E0D6E1A
:102650000C5004D0D8900A360B360D2A0BAEFAD7A0
:10266000D8900F3610360A50085C0B500958D8A085
:1026700005D00A50085E0B50095A0F80D8900B32D3
:102680000A320D2EEDD70E50D8B404D00F6C101EA8
:10269000D8B0102A0FC008F010C009F01200ADEC3D
:1026A00015F00CEC17F02FEC17F0000E00010001F4
:1026B000A16F000E00010001A26F000E00010001D9
:1026C000A36F9494D7EC16F0E7EC16F0000E00011F
:1026D0000001A06F000E00019F6F66EC16F0000E67
:1026E0005B6E000E5A6ED7EC0AF05AC0A1F05BC0C8
:1026F000A2F05CC0A3F0A1C060F0A2C061F0A3C0D2
:1027000062F0A1EC10F09FC001F0A0C002F0000E3A
:10271000046E7D0E036EF9EC13F002500110D8A484
:102720000FD0A1C090F0A2C091F0A3C092F0BEEC77
:102730000EF0000E00010001A06F000E00019F6F5F
:10274000000100019F4BA02BC8D70450D8B405D07E
:10275000015002100310D8A40CD0000E016E000E20
:10276000026E000E036E1200042AD8900332023269
:102770000132000E0114066E000E0214076EFE0EEA
:102780000314086E065007100810D8B40CD0ECD70C
:10279000042A010E0126000E0222000E0322D89008
:1027A000033202320132000E0114066E000E0214D2
:1027B000076EFF0E0314086E065007100810D8B4F9
:1027C00006D0E6D70406D89001360236033602AEAC
:1027D000F9D704A0029ED890043204500312055089
:1027E000D8A4038E01C001F002C002F003C003F0C0
:1027F0001200056E000E076E05500250800AF36E3F
:10280000800EF35C000ED8B4015CD8B008D0016C27
:10281000021ED8B0022A056E010E076E0550045044
:10282000800AF36E800EF35C000ED8B4035CD8B05F
:1028300004D0036C041ED8B0042A04500310D8B48A
:102840001AD0056E010E066E055004D0D8900336DE
:102850000436062A04AEFAD70350015C045002582D
:10286000D8A004D00350015E0450025AD89004321C
:102870000332062EF1D70750D8B404D0016C021EE3
:10288000D8B0022A01C001F002C002F012007F0E8F
:10289000031402100110D8A40FD004C0D9FF05C042
:1028A000DAFF000EDE6E000EDD6E000E016E000E11
:1028B000026E000E036E120003507F0B066ED8905E
:1028C0000634076E086A083604C0D9FF05C0DAFF6F
:1028D00007C0DEFF08C0DDFF02AE03D0066A062A8D
:1028E00001D0066A065004C0D9FF05C0DAFFDE1227
:1028F000000EDD1204C0D9FF05C0DAFF820EDE260D
:10290000FF0EDD2203800382038403860388038A8B
:10291000039C029E01C001F002C002F003C003F05C
:10292000120003AE16D001C007F002C008F003C0C9
:1029300009F0071E081E091E072A000E0822092298
:10294000000E0724016E000E0820026E800E092082
:10295000036E06AE16D004C007F005C008F006C02E
:1029600009F0071E081E091E072A000E0822092268
:10297000000E0724046E000E0820056E800E09204C
:10298000066E000E011A000E021A800E031A000EC7
:10299000041A000E051A800E061A0450015C055038
:1029A000025806500358D8B002D0D8901200D880F0
:1029B0001200000E0A6E000E0B6E000E0C6E000E62
:1029C0000D6E0850051006100710D8B42CD0096EF3
:1029D000010E0E6E095006D0D89005360636073621
:1029E00008360E2A08AEF8D7D8900A360B360C36C1
:1029F0000D360550015C0650025807500358085028
:102A00000458D8A009D00550015E0650025A07505C
:102A1000035A0850045A0A80D89008320732063206
:102A200005320E2EE1D70AC001F00BC002F00CC037
:102A300003F00DC004F01200085005100610071036
:102A4000D8B426D0096E010E0A6E095006D0D8906F
:102A500005360636073608360A2A08AEF8D7055076
:102A6000015C065002580750035808500458D8A07B
:102A700008D00550015E0650025A0750035A08500C
:102A8000045AD89008320732063205320A2EE7D7A8
:102A900001C001F002C002F003C003F004C004F062
:102AA00012000D6E8E0E116E0D5006D0D8900C32A5
:102AB0000B320A320932112A000E09140D6E000E73
:102AC0000A140E6E000E0B140F6EFF0E0C14106E17
:102AD00010500D100E100F10D8A4E8D709C001F047
:102AE0000AC002F00BC003F011C004F00D6E000E1E
:102AF000056E0D50A5EC13F001C009F002C00AF0FC
:102B000003C00BF012000C6E000E0D6E0C500A503C
:102B1000800AF36E800EF35C000ED8B4095CD8B066
:102B200008D0096C0A1ED8B00A2A0C6E010E0D6E70
:102B30000C5009C001F00AC002F0036A0C6E8E0E40
:102B4000046E0C500DC005F0A5EC13F001C009F0A7
:102B500002C00AF003C00BF01200000E8D6E000ED2
:102B60008C6E000E896E000E8A6E000E8B6E070E44
:102B7000966E9268F50E936E870E946E9568840E2D
:102B80000F010F015D6F340E0F010F015C6F0F011C
:102B90000F015E69070E0F010F015F6F2F0E0F010E
:102BA0000F015B6FF19E120031C0D9FF32C0DAFF16
:102BB000DECF2BF0DECF2CF0DDCF2DF033C02EF0AA
:102BC00034C02FF035C030F04BEC16F031C0D9FFD7
:102BD00032C0DAFF2BC0DEFF2CC0DEFF2DC0DDFFD0
:102BE000DD52120049C0D9FF4AC0DAFFDECF3AF009
:102BF000DECF3BF0DDCF3CF04BC03DF04CC03EF0B3
:102C00004DC03FF024EC11F049C0D9FF4AC0DAFFB3
:102C10003AC0DEFF3BC0DEFF3CC0DDFFDD521200EC
:102C200053C0D9FF54C0DAFFDECF1FF0DECF20F053
:102C3000DDCF21F055C022F056C023F057C024F05C
:102C40002CEC0DF053C0D9FF54C0DAFF1FC0DEFFDB
:102C500020C0DEFF21C0DDFFDD5212001150130243
:102C6000F3CF15F0F4CF16F011501402F3CFF4FFA8
:102C7000F36AF3501526F450162212501302F3CFC4
:102C8000F4FFF36AF3501526F450162215C011F024
:102C900016C012F01200000E2E1A000E2F1A800E0F
:102CA000301A2BC01FF02CC020F02DC021F02EC0F8
:102CB00022F02FC023F030C024F02CEC0DF01FC008
:102CC0002BF020C02CF021C02DF012000D0E01ECD5
:102CD00017F0020EF6EC16F0000E036E090E026EEF
:102CE000000E056E070E046E15EC17F0000E036E55
:102CF0000C0E026E000E056E010E046E15EC17F040
:102D0000120001C003F003460346C2500318830BB0
:102D10000318C26EC282C2B2FED7C350C4CF03F042
:102D2000046A03C004F0036A0310016E0450026ECB
:102D3000120017C001F018C002F0036A1A6E8E0E5E
:102D4000046E1A501B6E000E056E1B50A5EC13F09E
:102D500001C017F002C018F003C019F01200E8CF4C
:102D600003F0016E000E026E01503A0E035CD8B003
:102D700007D02F0E036404D0016E010E026E0150C5
:102D800002C001F0013012007F0E1E141D101C1035
:102D9000D8B406D0000E1C1A000E1D1A800E1E1A82
:102DA0001CC01CF01DC01DF01EC01EF01200928041
:102DB0000F010F015B81C08EC086C088C08AC050E1
:102DC000F80B0509C06EC194C192C28012000C0EAE
:102DD000BD6E110EB96EFE0EBB6E000EB66EBD84DA
:102DE000BD86040EBA6E190EBE6E1200E8CF02F058
:102DF0008B9C0B0E1EEC17F002501EEC17F08B8C08
:102E00001200E8CF02F08B9C0A0E1EEC17F0025065
:102E10001EEC17F08B8C1200600ED36E080ED26E73
:102E2000000E9B6E000EB56E12008B9C02501EECC5
:102E300017F004501EEC17F08B8C1200E8CF01F055
:102E4000C69E01C0C9FFC7A0FED7C950120000012D
:102E5000A56BA46B000EF86E00014FEF13F0800E0F
:0C2E6000C76E300EC66E000EC86E120069
:020000040020DA
:08000000FFFFFFFFFFFFFFFF00
:020000040030CA
:0E00000002285F3CFF5185FF0FC00FE00F404C
:00000001FF
